{
  "_format": "hh-sol-artifact-1",
  "contractName": "KIP7",
  "sourceName": "@klaytn/contracts/KIP/token/KIP7/KIP7.sol",
  "abi": [
    {
      "inputs": [
        {
          "internalType": "string",
          "name": "name_",
          "type": "string"
        },
        {
          "internalType": "string",
          "name": "symbol_",
          "type": "string"
        }
      ],
      "stateMutability": "nonpayable",
      "type": "constructor"
    },
    {
      "anonymous": false,
      "inputs": [
        {
          "indexed": true,
          "internalType": "address",
          "name": "owner",
          "type": "address"
        },
        {
          "indexed": true,
          "internalType": "address",
          "name": "spender",
          "type": "address"
        },
        {
          "indexed": false,
          "internalType": "uint256",
          "name": "value",
          "type": "uint256"
        }
      ],
      "name": "Approval",
      "type": "event"
    },
    {
      "anonymous": false,
      "inputs": [
        {
          "indexed": true,
          "internalType": "address",
          "name": "from",
          "type": "address"
        },
        {
          "indexed": true,
          "internalType": "address",
          "name": "to",
          "type": "address"
        },
        {
          "indexed": false,
          "internalType": "uint256",
          "name": "value",
          "type": "uint256"
        }
      ],
      "name": "Transfer",
      "type": "event"
    },
    {
      "inputs": [
        {
          "internalType": "address",
          "name": "owner",
          "type": "address"
        },
        {
          "internalType": "address",
          "name": "spender",
          "type": "address"
        }
      ],
      "name": "allowance",
      "outputs": [
        {
          "internalType": "uint256",
          "name": "",
          "type": "uint256"
        }
      ],
      "stateMutability": "view",
      "type": "function"
    },
    {
      "inputs": [
        {
          "internalType": "address",
          "name": "spender",
          "type": "address"
        },
        {
          "internalType": "uint256",
          "name": "amount",
          "type": "uint256"
        }
      ],
      "name": "approve",
      "outputs": [
        {
          "internalType": "bool",
          "name": "",
          "type": "bool"
        }
      ],
      "stateMutability": "nonpayable",
      "type": "function"
    },
    {
      "inputs": [
        {
          "internalType": "address",
          "name": "account",
          "type": "address"
        }
      ],
      "name": "balanceOf",
      "outputs": [
        {
          "internalType": "uint256",
          "name": "",
          "type": "uint256"
        }
      ],
      "stateMutability": "view",
      "type": "function"
    },
    {
      "inputs": [],
      "name": "decimals",
      "outputs": [
        {
          "internalType": "uint8",
          "name": "",
          "type": "uint8"
        }
      ],
      "stateMutability": "view",
      "type": "function"
    },
    {
      "inputs": [
        {
          "internalType": "address",
          "name": "spender",
          "type": "address"
        },
        {
          "internalType": "uint256",
          "name": "subtractedValue",
          "type": "uint256"
        }
      ],
      "name": "decreaseAllowance",
      "outputs": [
        {
          "internalType": "bool",
          "name": "",
          "type": "bool"
        }
      ],
      "stateMutability": "nonpayable",
      "type": "function"
    },
    {
      "inputs": [
        {
          "internalType": "address",
          "name": "spender",
          "type": "address"
        },
        {
          "internalType": "uint256",
          "name": "addedValue",
          "type": "uint256"
        }
      ],
      "name": "increaseAllowance",
      "outputs": [
        {
          "internalType": "bool",
          "name": "",
          "type": "bool"
        }
      ],
      "stateMutability": "nonpayable",
      "type": "function"
    },
    {
      "inputs": [],
      "name": "name",
      "outputs": [
        {
          "internalType": "string",
          "name": "",
          "type": "string"
        }
      ],
      "stateMutability": "view",
      "type": "function"
    },
    {
      "inputs": [
        {
          "internalType": "address",
          "name": "recipient",
          "type": "address"
        },
        {
          "internalType": "uint256",
          "name": "amount",
          "type": "uint256"
        }
      ],
      "name": "safeTransfer",
      "outputs": [],
      "stateMutability": "nonpayable",
      "type": "function"
    },
    {
      "inputs": [
        {
          "internalType": "address",
          "name": "recipient",
          "type": "address"
        },
        {
          "internalType": "uint256",
          "name": "amount",
          "type": "uint256"
        },
        {
          "internalType": "bytes",
          "name": "_data",
          "type": "bytes"
        }
      ],
      "name": "safeTransfer",
      "outputs": [],
      "stateMutability": "nonpayable",
      "type": "function"
    },
    {
      "inputs": [
        {
          "internalType": "address",
          "name": "sender",
          "type": "address"
        },
        {
          "internalType": "address",
          "name": "recipient",
          "type": "address"
        },
        {
          "internalType": "uint256",
          "name": "amount",
          "type": "uint256"
        }
      ],
      "name": "safeTransferFrom",
      "outputs": [],
      "stateMutability": "nonpayable",
      "type": "function"
    },
    {
      "inputs": [
        {
          "internalType": "address",
          "name": "sender",
          "type": "address"
        },
        {
          "internalType": "address",
          "name": "recipient",
          "type": "address"
        },
        {
          "internalType": "uint256",
          "name": "amount",
          "type": "uint256"
        },
        {
          "internalType": "bytes",
          "name": "_data",
          "type": "bytes"
        }
      ],
      "name": "safeTransferFrom",
      "outputs": [],
      "stateMutability": "nonpayable",
      "type": "function"
    },
    {
      "inputs": [
        {
          "internalType": "bytes4",
          "name": "interfaceId",
          "type": "bytes4"
        }
      ],
      "name": "supportsInterface",
      "outputs": [
        {
          "internalType": "bool",
          "name": "",
          "type": "bool"
        }
      ],
      "stateMutability": "view",
      "type": "function"
    },
    {
      "inputs": [],
      "name": "symbol",
      "outputs": [
        {
          "internalType": "string",
          "name": "",
          "type": "string"
        }
      ],
      "stateMutability": "view",
      "type": "function"
    },
    {
      "inputs": [],
      "name": "totalSupply",
      "outputs": [
        {
          "internalType": "uint256",
          "name": "",
          "type": "uint256"
        }
      ],
      "stateMutability": "view",
      "type": "function"
    },
    {
      "inputs": [
        {
          "internalType": "address",
          "name": "to",
          "type": "address"
        },
        {
          "internalType": "uint256",
          "name": "amount",
          "type": "uint256"
        }
      ],
      "name": "transfer",
      "outputs": [
        {
          "internalType": "bool",
          "name": "",
          "type": "bool"
        }
      ],
      "stateMutability": "nonpayable",
      "type": "function"
    },
    {
      "inputs": [
        {
          "internalType": "address",
          "name": "from",
          "type": "address"
        },
        {
          "internalType": "address",
          "name": "to",
          "type": "address"
        },
        {
          "internalType": "uint256",
          "name": "amount",
          "type": "uint256"
        }
      ],
      "name": "transferFrom",
      "outputs": [
        {
          "internalType": "bool",
          "name": "",
          "type": "bool"
        }
      ],
      "stateMutability": "nonpayable",
      "type": "function"
    }
  ],
  "bytecode": "0x60806040523480156200001157600080fd5b5060405162001156380380620011568339810160408190526200003491620001c1565b81516200004990600390602085019062000068565b5080516200005f90600490602084019062000068565b5050506200027b565b828054620000769062000228565b90600052602060002090601f0160209004810192826200009a5760008555620000e5565b82601f10620000b557805160ff1916838001178555620000e5565b82800160010185558215620000e5579182015b82811115620000e5578251825591602001919060010190620000c8565b50620000f3929150620000f7565b5090565b5b80821115620000f35760008155600101620000f8565b600082601f8301126200011f578081fd5b81516001600160401b03808211156200013c576200013c62000265565b604051601f8301601f19908116603f0116810190828211818310171562000167576200016762000265565b8160405283815260209250868385880101111562000183578485fd5b8491505b83821015620001a6578582018301518183018401529082019062000187565b83821115620001b757848385830101525b9695505050505050565b60008060408385031215620001d4578182fd5b82516001600160401b0380821115620001eb578384fd5b620001f9868387016200010e565b935060208501519150808211156200020f578283fd5b506200021e858286016200010e565b9150509250929050565b6002810460018216806200023d57607f821691505b602082108114156200025f57634e487b7160e01b600052602260045260246000fd5b50919050565b634e487b7160e01b600052604160045260246000fd5b610ecb806200028b6000396000f3fe608060405234801561001057600080fd5b50600436106101005760003560e01c806342842e0e11610097578063a9059cbb11610066578063a9059cbb146101fc578063b88d4fde1461020f578063dd62ed3e14610222578063eb7955491461023557610100565b806342842e0e146101bb57806370a08231146101ce57806395d89b41146101e1578063a457c2d7146101e957610100565b806323b872dd116100d357806323b872dd1461016b578063313ce5671461017e5780633950935114610193578063423f6cef146101a657610100565b806301ffc9a71461010557806306fdde031461012e578063095ea7b31461014357806318160ddd14610156575b600080fd5b610118610113366004610aab565b610248565b6040516101259190610b6b565b60405180910390f35b610136610290565b6040516101259190610b76565b610118610151366004610a2d565b610322565b61015e610344565b6040516101259190610df0565b61011861017936600461098c565b61034a565b610186610378565b6040516101259190610df9565b6101186101a1366004610a2d565b61037d565b6101b96101b4366004610a2d565b6103a9565b005b6101b96101c936600461098c565b6103d5565b61015e6101dc366004610939565b61040d565b610136610428565b6101186101f7366004610a2d565b610437565b61011861020a366004610a2d565b610488565b6101b961021d3660046109c7565b6104a0565b61015e61023036600461095a565b6104ca565b6101b9610243366004610a56565b6104f5565b60006001600160e01b03198216636578737160e01b148061027957506001600160e01b0319821663a219a02560e01b145b8061028857506102888261050d565b90505b919050565b60606003805461029f90610e2b565b80601f01602080910402602001604051908101604052809291908181526020018280546102cb90610e2b565b80156103185780601f106102ed57610100808354040283529160200191610318565b820191906000526020600020905b8154815290600101906020018083116102fb57829003601f168201915b5050505050905090565b60008061032d610526565b905061033a81858561052a565b5060019392505050565b60025490565b600080610355610526565b90506103628582856105de565b61036d858585610622565b506001949350505050565b601290565b600080610388610526565b905061033a81858561039a85896104ca565b6103a49190610e07565b61052a565b60006103b3610526565b90506103d081848460405180602001604052806000815250610746565b505050565b60006103df610526565b90506103ec8482846105de565b61040784848460405180602001604052806000815250610746565b50505050565b6001600160a01b031660009081526020819052604090205490565b60606004805461029f90610e2b565b600080610442610526565b9050600061045082866104ca565b90508381101561047b5760405162461bcd60e51b815260040161047290610c91565b60405180910390fd5b61036d828686840361052a565b600080610493610526565b905061033a818585610622565b60006104aa610526565b90506104b78582856105de565b6104c385858585610746565b5050505050565b6001600160a01b03918216600090815260016020908152604080832093909416825291909152205490565b60006104ff610526565b905061040781858585610746565b6001600160e01b031981166301ffc9a760e01b14919050565b3390565b6001600160a01b0383166105505760405162461bcd60e51b815260040161047290610dad565b6001600160a01b0382166105765760405162461bcd60e51b815260040161047290610bc0565b6001600160a01b0380841660008181526001602090815260408083209487168084529490915290819020849055517f8c5be1e5ebec7d5bd14f71427d1e84f3dd0314c0f7b2291e5b200ac8c7c3b925906105d1908590610df0565b60405180910390a3505050565b60006105ea84846104ca565b9050600019811461040757818110156106155760405162461bcd60e51b815260040161047290610b89565b610407848484840361052a565b6001600160a01b0383166106485760405162461bcd60e51b815260040161047290610cd5565b6001600160a01b03821661066e5760405162461bcd60e51b815260040161047290610c4f565b6106798383836103d0565b6001600160a01b038316600090815260208190526040902054818110156106b25760405162461bcd60e51b815260040161047290610d68565b6001600160a01b038085166000908152602081905260408082208585039055918516815290812080548492906106e9908490610e07565b92505081905550826001600160a01b0316846001600160a01b03167fddf252ad1be2c89b69c2b068fc378daa952ba7f163c4a11628f55a4df523b3ef846040516107339190610df0565b60405180910390a36104078484846103d0565b610751848484610622565b61075d84848484610779565b6104075760405162461bcd60e51b815260040161047290610d19565b600061078d846001600160a01b031661088c565b1561036d57836001600160a01b0316639d188c226107a9610526565b8786866040518563ffffffff1660e01b81526004016107cb9493929190610b2e565b602060405180830381600087803b1580156107e557600080fd5b505af1925050508015610815575060408051601f3d908101601f1916820190925261081291810190610ac7565b60015b61086f573d808015610843576040519150601f19603f3d011682016040523d82523d6000602084013e610848565b606091505b5080516108675760405162461bcd60e51b815260040161047290610c01565b805181602001fd5b6001600160e01b031916634e8c461160e11b149050949350505050565b6001600160a01b03163b151590565b80356001600160a01b038116811461028b57600080fd5b600082601f8301126108c2578081fd5b813567ffffffffffffffff808211156108dd576108dd610e66565b604051601f8301601f19908116603f0116810190828211818310171561090557610905610e66565b8160405283815286602085880101111561091d578485fd5b8360208701602083013792830160200193909352509392505050565b60006020828403121561094a578081fd5b6109538261089b565b9392505050565b6000806040838503121561096c578081fd5b6109758361089b565b91506109836020840161089b565b90509250929050565b6000806000606084860312156109a0578081fd5b6109a98461089b565b92506109b76020850161089b565b9150604084013590509250925092565b600080600080608085870312156109dc578081fd5b6109e58561089b565b93506109f36020860161089b565b925060408501359150606085013567ffffffffffffffff811115610a15578182fd5b610a21878288016108b2565b91505092959194509250565b60008060408385031215610a3f578182fd5b610a488361089b565b946020939093013593505050565b600080600060608486031215610a6a578283fd5b610a738461089b565b925060208401359150604084013567ffffffffffffffff811115610a95578182fd5b610aa1868287016108b2565b9150509250925092565b600060208284031215610abc578081fd5b813561095381610e7c565b600060208284031215610ad8578081fd5b815161095381610e7c565b60008151808452815b81811015610b0857602081850181015186830182015201610aec565b81811115610b195782602083870101525b50601f01601f19169290920160200192915050565b6001600160a01b0385811682528416602082015260408101839052608060608201819052600090610b6190830184610ae3565b9695505050505050565b901515815260200190565b6000602082526109536020830184610ae3565b6020808252601c908201527f4b4950373a20696e73756666696369656e7420616c6c6f77616e636500000000604082015260600190565b60208082526021908201527f4b4950373a20617070726f766520746f20746865207a65726f206164647265736040820152607360f81b606082015260800190565b6020808252602e908201527f4b4950373a207472616e7366657220746f206e6f6e204b49503752656365697660408201526d32b91034b6b83632b6b2b73a32b960911b606082015260800190565b60208082526022908201527f4b4950373a207472616e7366657220746f20746865207a65726f206164647265604082015261737360f01b606082015260800190565b60208082526024908201527f4b4950373a2064656372656173656420616c6c6f77616e63652062656c6f77206040820152637a65726f60e01b606082015260800190565b60208082526024908201527f4b4950373a207472616e736665722066726f6d20746865207a65726f206164646040820152637265737360e01b606082015260800190565b6020808252602f908201527f4b4950373a207472616e7366657220746f206e6f6e20494b495037526563656960408201526e3b32b91034b6b83632b6b2b73a32b960891b606082015260800190565b60208082526025908201527f4b4950373a207472616e7366657220616d6f756e7420657863656564732062616040820152646c616e636560d81b606082015260800190565b60208082526023908201527f4b4950373a20617070726f76652066726f6d20746865207a65726f206164647260408201526265737360e81b606082015260800190565b90815260200190565b60ff91909116815260200190565b60008219821115610e2657634e487b7160e01b81526011600452602481fd5b500190565b600281046001821680610e3f57607f821691505b60208210811415610e6057634e487b7160e01b600052602260045260246000fd5b50919050565b634e487b7160e01b600052604160045260246000fd5b6001600160e01b031981168114610e9257600080fd5b5056fea2646970667358221220fd9560a5ac8f61b327e91cd9c666452e490a948b1e6147558dd72839949f7d3364736f6c63430008010033",
  "linkReferences": {},
  "deployedLinkReferences": {}
}